:100000000C9463000C948B000C948B000C948B006C
:100010000C948B000C948B000C948B000C948B0034
:100020000C948B000C948B000C948B000C948B0024
:100030000C948B000C948B000C948B000C948B0014
:100040000C940F040C948B000C94C8060C948B0039
:100050000C948B000C948B000C948B000C948B00F4
:100060000C948B000C948B000000000024002700EF
:100070002A0000000000250028002B0000000000DE
:1000800023002600290004040404040404040202DA
:100090000202020203030303030301020408102007
:1000A0004080010204081020010204081020000012
:1000B0000007000201000003040600000000000029
:1000C0000000D501110811241FBECFEFD8E0DEBF1C
:1000D000CDBF11E0A0E0B1E0E0EFF3E102C0059098
:1000E0000D92A435B107D9F712E0A4E5B1E001C043
:1000F0001D92AE31B107E1F710E0C6ECD0E004C0CC
:100100002297FE010E94F209C23CD107C9F70E9462
:10011000E7030C94F6090C940000FC016083418312
:1001200012821382148215820895AF92BF92DF92D9
:10013000EF92FF920F931F93CF93DF93EC01B62EB4
:100140008A819B81AC81BD810097A105B10581F1B8
:10015000EE80FF808DEF9FEFE80EF91E898160E051
:100160000E94F704C7010E948F04DD24D39400E0AD
:1001700010E0AB2CBB248D2D90E08A219B21892B94
:1001800019F0898161E002C0898160E00E94F70472
:10019000C7010E948F04DD0C0F5F1F4F083011054F
:1001A00051F7898161E00E94F704C7010E948F0422
:1001B000DF91CF911F910F91FF90EF90DF90BF9053
:1001C000AF9008952F923F924F925F926F927F92DD
:1001D0008F929F92AF92BF92CF92DF92EF92FF9257
:1001E0000F931F93DF93CF93CDB7DEB7A0970FB6D2
:1001F000F894DEBF0FBECDBF1C016A017B01411523
:1002000051056105710521F460E30E9495004FC01E
:10021000882499245401422E55246624772401E031
:1002200010E00C0F1D1F080D191DC701B601A30119
:1002300092010E949F09F80160830894811C911C1F
:10024000A11CB11CC701B601A30192010E949F0924
:10025000C901DA016C017D01C114D104E104F1048A
:10026000F1F681E0E82EF12CEC0EFD1EE80CF91CF5
:100270003E010894611C711CD501C4010197A109BC
:10028000B1096C01C818D9080FC0F601EE0DFF1DA9
:1002900060816A3010F4605D01C0695CC1010E9438
:1002A00095000894E108F1086E147F0471F7A09698
:1002B0000FB6F894DEBF0FBECDBFCF91DF911F9177
:1002C0000F91FF90EF90DF90CF90BF90AF909F90F5
:1002D0008F907F906F905F904F903F902F900895F8
:1002E000EF92FF920F931F93CF93DF93EC017A016C
:1002F0008B0177FF0BC06DE20E9495001095009571
:10030000F094E094E11CF11C011D111DCE01B80117
:10031000A7012AE00E94E200DF91CF911F910F9187
:10032000FF90EF9008952115310521F4642F0E946C
:10033000950008952A30310519F40E94700108953E
:100340000E94E20008950F931F93CF93DF938C01D7
:10035000EB0104C02196C8010E94950068816623C4
:10036000C9F7DF91CF911F910F9108950F931F93BC
:100370008C019A01AB01FC012283338344835583B2
:1003800060E472E48FE090E00E94C109F8013783D5
:100390002683818161E00E94F704F80186819781BC
:1003A0000E948F041F910F91089584E591E064E00D
:1003B0004EE00E948D0008950E94570420917A011A
:1003C00030917B0140917C0150917D01621B730B48
:1003D000840B950B695E73408040904008F4ACC07C
:1003E00084E591E060E071E00E94A30184E591E082
:1003F00068E071E00E94A30184E591E068E171E0AA
:100400000E94A30180915C0190915D016AE070E01F
:100410000E948C09AB01662757FD6095762F84E515
:1004200091E02AE030E00E94930184E591E060E2EF
:1004300071E00E94A30180915C0190915D016AE0EE
:1004400070E00E948C09AC01662757FD6095762FFD
:1004500084E591E02AE030E00E94930184E591E098
:1004600062E271E00E94A3018091470190914801EE
:100470006AE070E00E948C09AB01662757FD609529
:10048000762F84E591E02AE030E00E94930184E534
:1004900091E060E271E00E94A30180914701909198
:1004A00048016AE070E00E948C09AC01662757FDA4
:1004B0006095762F84E591E02AE030E00E94930178
:1004C00084E591E062E271E00E94A3018091450120
:1004D000909146016AE070E00E948C09AB016627AA
:1004E00057FD6095762F84E591E02AE030E00E9488
:1004F000930184E591E060E271E00E94A3018091A4
:100500004501909146016AE070E00E948C09AC01BF
:10051000662757FD6095762F84E591E02AE030E06C
:100520000E9493010E94570460937A0170937B01AB
:1005300080937C0190937D0108950F931F930BE0AE
:1005400012E040915C0150915D01662757FD609576
:10055000762FC8012AE030E00E94B306C80165E2A8
:1005600071E00E94CA0540914501509146016627FD
:1005700057FD6095762FC8012AE030E00E94B3064F
:10058000C80165E371E00E94CA054091470150919E
:100590004801662757FD6095762FC8012AE030E0B4
:1005A0000E94B306C8016CE371E00E94E9051F9147
:1005B0000F910895CF93DF9310926F0110926E0107
:1005C00040C081E00E94F103CC0FDD1FC25ADE4F14
:1005D000AA2797FDA095BA2FBC01CD010E947E08E5
:1005E0002DEC3CEC4CE85FE30E940A0920E030E08F
:1005F0004AE754E40E940A0920E030E040E85AE368
:100600000E940A090E944B087983688340916E0119
:1006100050916F01FA01EE0FFF1FE25AFE4F8091D9
:100620005C0190915D0120813181820F931F909335
:100630005D0180935C014F5F5F4F50936F0140936A
:100640006E01C0916E01D0916F01C830D1050CF4DC
:10065000B8CF86E00E9444059C019093710180937D
:10066000700181309105B1F4809172019091730114
:10067000892B81F48091740190917501281B390BAD
:10068000309375012093740164E170E080E090E0A4
:100690000E94650460915C0170915D01882777FD7F
:1006A0008095982F0E947E0820E030E040E05EE3D5
:1006B0000E940A090E944B0870935D0160935C01DF
:1006C0000E9457046157774180409040F0F020919C
:1006D0005C0130915D018091450190914601821746
:1006E000930724F4309346012093450180914701FC
:1006F000909148012817390724F43093480120933A
:1007000047010E949D020E94DC018091700190913E
:1007100071019093730180937201809174019091A3
:100720007501019719F487E061E002C087E060E09D
:100730000E94F70410925D0110925C01DF91CF914D
:1007400008950F931F930E9457046093760170934E
:100750007701809378019093790160937A01709387
:100760007B0180937C0190937D0187E061E00E9492
:10077000D70487E060E00E94F70486E060E00E9412
:10078000D7048EE061E00E94D70404E511E0C801BF
:1007900040E855E260E070E00E94B601C80162E402
:1007A00071E00E94A3016AE070E080E090E00E94A6
:1007B00065048BE092E040E855E260E070E00E9462
:1007C000050783E00E94EE031F910F9108950E9498
:1007D0009D040E94A1030E94DA02FDCF809349018B
:1007E00008958F70909149019295990F990F907C7F
:1007F000982B90937C0080917A00806480937A009B
:1008000080917A0086FDFCCF20917800409179009C
:10081000942F80E030E0282B392BC90108951F92D6
:100820000F920FB60F9211242F933F938F939F93A4
:10083000AF93BF938091820190918301A091840135
:10084000B0918501309186010196A11DB11D232F24
:100850002D5F2D3720F02D570196A11DB11D20933E
:1008600086018093820190938301A0938401B093C9
:10087000850180917E0190917F01A0918001B091CE
:1008800081010196A11DB11D80937E0190937F018E
:10089000A0938001B0938101BF91AF919F918F91FF
:1008A0003F912F910F900FBE0F901F9018958FB70B
:1008B000F8942091820130918301409184015091FC
:1008C00085018FBFB901CA010895EF92FF920F937E
:1008D0001F937B018C018FB7F89440918201509156
:1008E000830160918401709185018FBF2FB7F894C7
:1008F0008091820190918301A0918401B091850142
:100900002FBF841B950BA60BB70BE816F9060A0739
:100910001B0760F71F910F91FF90EF9008950197CB
:1009200059F0FC01EE0FFF1FEE0FFF1F32978FB73C
:10093000F8943197F1F78FBF0895789484B5826069
:1009400084BD84B5816084BD85B5826085BD85B573
:10095000816085BDEEE6F0E0808181608083E1E822
:10096000F0E0808182608083808181608083E0E824
:10097000F0E0808181608083E1EBF0E08081846041
:100980008083E0EBF0E0808181608083EAE7F0E043
:1009900080818460808380818260808380818160A7
:1009A00080838081806880831092C1000895282F01
:1009B00030E0C90186569F4FFC0194912A573F4F62
:1009C000F9018491882391F0E82FF0E0EE0FFF1FEA
:1009D000E859FF4FA591B491662329F48C91909525
:1009E00089238C9308958C91892B8C930895482F9B
:1009F00050E0CA0182559F4FFC012491CA018656DE
:100A00009F4FFC0194914A575F4FFA013491332371
:100A1000D1F1222331F1233021F4809180008F77AE
:100A200005C0243031F4809180008F7D8093800058
:100A300018C0213019F484B58F7704C0223021F416
:100A400084B58F7D84BD0DC0263021F48091B00027
:100A50008F7705C0273029F48091B0008F7D809377
:100A6000B000E32FF0E0EE0FFF1FEE58FF4FA5910F
:100A7000B491662329F48C91909589238C930895E1
:100A80008C91892B8C930895682F70E0CB0182554F
:100A90009F4FFC012491CB0186569F4FFC0144914E
:100AA0006A577F4FFB019491992319F420E030E0BD
:100AB00038C0222331F1233021F4809180008F77D8
:100AC00005C0243031F4809180008F7D80938000B8
:100AD00018C0213019F484B58F7704C0223021F476
:100AE00084B58F7D84BD0DC0263021F48091B00087
:100AF0008F7705C0273029F48091B0008F7D8093D7
:100B0000B000892F90E0880F991F84589F4FFC01F7
:100B1000A591B4918C9120E030E0842311F021E084
:100B200030E0C90108950F931F93CF93DF938C0199
:100B3000EB0109C02196D801ED91FC910190F08163
:100B4000E02DC801099568816623A1F7DF91CF9157
:100B50001F910F910895EF92FF920F931F93CF93E0
:100B6000DF938C017B01EA010CC0D7016D917D01FF
:100B7000D801ED91FC910190F081E02DC80109951B
:100B80002197209791F7DF91CF911F910F91FF90BF
:100B9000EF900895DC01ED91FC910280F381E02D4E
:100BA000099508950F931F938C01DC01ED91FC9141
:100BB0000190F081E02D6DE00995D801ED91FC9157
:100BC0000190F081E02DC8016AE009951F910F9115
:100BD00008950F931F938C010E94CA05C8010E94BB
:100BE000D2051F910F9108952F923F924F925F92DD
:100BF0006F927F928F929F92AF92BF92CF92DF922D
:100C0000EF92FF920F931F93DF93CF93CDB7DEB791
:100C1000A0970FB6F894DEBF0FBECDBF1C016A01CE
:100C20007B01411551056105710549F4DC01ED9128
:100C3000FC910190F081E02D60E3099554C0882477
:100C400099245401422E55246624772401E010E0B3
:100C50000C0F1D1F080D191DC701B601A30192013C
:100C60000E949F09F80160830894811C911CA11CBB
:100C7000B11CC701B601A30192010E949F09C901DD
:100C8000DA016C017D01C114D104E104F104F1F633
:100C900081E0E82EF12CEC0EFD1EE80CF91C3E0163
:100CA0000894611C711CD501C4010197A109B10907
:100CB0006C01C818D90814C0F601EE0DFF1D608143
:100CC0006A3010F4605D01C0695CD101ED91FC9166
:100CD0000190F081E02DC10109950894E108F10827
:100CE0006E147F0449F7A0960FB6F894DEBF0FBECE
:100CF000CDBFCF91DF911F910F91FF90EF90DF90CB
:100D0000CF90BF90AF909F908F907F906F905F90AB
:100D10004F903F902F900895EF92FF920F931F9363
:100D2000CF93DF93EC017A018B0177FF0FC0E8814D
:100D3000F9810190F081E02D6DE209951095009503
:100D4000F094E094E11CF11C011D111DCE01B801CD
:100D5000A7012AE00E94F405DF91CF911F910F9126
:100D6000FF90EF900895DC012115310541F4ED91DC
:100D7000FC910190F081E02D642F099508952A30AF
:100D8000310519F40E948C0608950E94F405089517
:100D90001F920F920FB60F9211242F933F934F93F0
:100DA0005F936F937F938F939F93AF93BF93EF93D3
:100DB000FF934091C600E0910702F0910802CF0135
:100DC000019660E870E00E948C099C018091090204
:100DD00090910A022817390739F0E957FE4F4083EE
:100DE0003093080220930702FF91EF91BF91AF91DA
:100DF0009F918F917F916F915F914F913F912F9133
:100E00000F900FBE0F901F9018955F926F927F9278
:100E10008F929F92AF92BF92CF92DF92EF92FF920A
:100E20000F931F93CF93DF93EC013A014B014134B1
:100E300082E458078FE0680780E078070CF07FC0F5
:100E400060E874E88EE190E0A40193010E94C1097A
:100E50002150304040405040CA01B90122E030E00A
:100E600040E050E00E94C10959016A01A6019501C4
:100E7000209530954095509594E0220F331F441FE4
:100E8000551F9A95D1F760E074E284EF90E00E94DC
:100E9000C109CA01B9012FEF30E040E050E00E94E3
:100EA0006D09A40193010E94C109C90181509F4F9E
:100EB000181619061CF4522E5A9403C05524539444
:100EC000521A60E079E08DE390E0A40193010E9462
:100ED000C1092150304040405040CA01B90122E0D0
:100EE00030E040E050E00E94C109209530954095E7
:100EF000509583E0220F331F441F551F8A95D1F769
:100F000060E074E284EF90E00E94C109CA01B90177
:100F10002FEF30E040E050E00E946D09A401930102
:100F20000E94C109C90181509F4F181619061CF46F
:100F3000822F815002C081E0821B851500F5E88573
:100F4000F98581E090E00A8802C0880F991F0A9411
:100F5000E2F7808360E079E08DE390E0A401930103
:100F60000E94C1092150304040405040CA01B9019F
:100F700022E030E040E050E00E94C10904C0E88572
:100F8000F98510829501EC81FD813083EE81FF812E
:100F90002083EA85FB85208141E050E0CA010E8470
:100FA00002C0880F991F0A94E2F7282B2083EA8554
:100FB000FB852081CA010F8402C0880F991F0A9403
:100FC000E2F7282B2083EA85FB858081088802C010
:100FD000440F551F0A94E2F7842B8083DF91CF9151
:100FE0001F910F91FF90EF90DF90CF90BF90AF9047
:100FF0009F908F907F906F905F900895FC01A085E7
:10100000B18521898C9190E0022E02C0959587953B
:101010000A94E2F780FFF6CF0484F585E02D608323
:1010200008958EE491E090930C0280930B0287E880
:1010300091E090930E0280930D0285EC90E09093E6
:10104000100280930F0284EC90E090931202809340
:10105000110280EC90E0909314028093130281ECD3
:1010600090E0909316028093150286EC90E09093A6
:1010700018028093170284E08093190283E0809322
:101080001A0287E080931B0285E080931C0281E0B6
:1010900080931D02089504D06894B111B5C00895DD
:1010A00098D088F09F5790F0B92F9927B751A0F0AA
:1010B000D1F0660F771F881F991F1AF0BA95C9F7EC
:1010C00012C0B13081F09FD0B1E008959CC0672F6D
:1010D000782F8827B85F39F0B93FCCF3869577959C
:1010E0006795B395D9F73EF4909580957095619585
:1010F0007F4F8F4F9F4F0895E89409C097FB3EF4B0
:1011000090958095709561957F4F8F4F9F4F992354
:10111000A9F0F92F96E9BB279395F69587957795D2
:101120006795B795F111F8CFFAF4BB0F11F460FF92
:101130001BC06F5F7F4F8F4F9F4F16C0882311F0EA
:1011400096E911C0772321F09EE8872F762F05C0FE
:10115000662371F096E8862F70E060E02AF09A9599
:10116000660F771F881FDAF7880F9695879597F98E
:10117000089597F99F6780E870E060E008959FEF19
:1011800080EC089500240A9416161706180609061E
:10119000089500240A9412161306140605060895ED
:1011A000092E0394000C11F4882352F0BB0F40F475
:1011B000BF2B11F460FF04C06F5F7F4F8F4F9F4FB5
:1011C000089557FD9058440F551F59F05F3F71F037
:1011D0004795880F97FB991F61F09F3F79F087959E
:1011E0000895121613061406551FF2CF4695F1DF27
:1011F00008C0161617061806991FF1CF86957105B7
:10120000610508940895E894BB2766277727CB01EA
:1012100097F908950BD0C4CFB5DF28F0BADF18F0E6
:10122000952309F0A6CFABCF1124EECFCADFA0F3F0
:10123000959FD1F3950F50E0551F629FF001729F6B
:10124000BB27F00DB11D639FAA27F00DB11DAA1F8A
:10125000649F6627B00DA11D661F829F2227B00DD7
:10126000A11D621F739FB00DA11D621F839FA00D62
:10127000611D221F749F3327A00D611D231F849FB2
:10128000600D211D822F762F6A2F11249F57504009
:101290008AF0E1F088234AF0EE0FFF1FBB1F661FA4
:1012A000771F881F91505040A9F79E3F510570F05D
:1012B00060CFAACF5F3FECF3983EDCF3869577953D
:1012C0006795B795F795E7959F5FC1F7FE2B880F58
:1012D000911D9695879597F90895629FD001739F08
:1012E000F001829FE00DF11D649FE00DF11D929FC2
:1012F000F00D839FF00D749FF00D659FF00D992701
:10130000729FB00DE11DF91F639FB00DE11DF91F24
:10131000BD01CF011124089597FB092E07260AD09D
:1013200077FD04D049D006D000201AF4709561955D
:101330007F4F0895F6F7909581959F4F0895A1E20C
:101340001A2EAA1BBB1BFD010DC0AA1FBB1FEE1F3F
:10135000FF1FA217B307E407F50720F0A21BB30B8A
:10136000E40BF50B661F771F881F991F1A9469F706
:1013700060957095809590959B01AC01BD01CF0162
:10138000089597FB092E05260ED057FD04D0D7DF10
:101390000AD0001C38F450954095309521953F4F68
:1013A0004F4F5F4F0895F6F7909580957095619532
:1013B0007F4F8F4F9F4F0895AA1BBB1B51E107C062
:1013C000AA1FBB1FA617B70710F0A61BB70B881FD5
:1013D000991F5A95A9F780959095BC01CD01089564
:1013E000EE0FFF1F0590F491E02D0994F894FFCFC4
:1013F0003F7830303F7930004355522020204D490E
:101400004E2020204D4158003F7830303F79310048
:101410002E003F74002046616872656E68656974CD
:10142000202D3E2000204D61782C2000204D696E3B
:1014300020003F660018FCE8030100000000FE07E2
:041440009305AB0560
:00000001FF
